:020000040800F2
:1000000000000220814C0008354A00083D4A0008E3
:10001000454A00084D4A0008554A00080000000003
:100020000000000000000000000000005D4A000821
:100030006B4A000800000000794A0008874A00085F
:10004000D14C0008D14C0008D14C0008D14C00081C
:10005000D14C0008D14C0008D14C0008D14C00080C
:10006000D14C0008D14C0008D14C0008D14C0008FC
:10007000D14C0008D14C0008D14C0008954A00082A
:10008000D14C0008D14C0008D14C0008D14C0008DC
:10009000D14C0008D14C0008D14C0008D14C0008CC
:1000A000D14C0008D14C0008D14C0008D14C0008BC
:1000B000D14C0008D14C0008D14C0008D14C0008AC
:1000C000D14C0008D14C0008D14C0008D14C00089C
:1000D000D14C0008A94A0008D14C0008D14C0008B6
:1000E000D14C0008D14C0008D14C0008D14C00087C
:1000F000D14C0008D14C0008D14C0008D14C00086C
:10010000D14C0008D14C0008D14C0008D14C00085B
:10011000D14C0008D14C0008D14C0008D14C00084B
:10012000BD4A0008D14C0008D14C0008D14C000851
:10013000D14C0008D14C0008D14C0008D14C00082B
:10014000D14C0008D14C0008D14C0008D14C00081B
:10015000D14C0008D14C0008D14C0008D14C00080B
:10016000D14C0008D14C0008D14C0008D14C0008FB
:10017000D14C0008D14C0008D14C00080000000010
:08018000D14C0008D14C00082D
:1001900010B5054C237833B9044B13B10448AFF3C1
:1001A00000800123237010BDFC010020000000002E
:1001B000A000010808B5034B1BB103490348AFF386
:1001C000008008BD0000000000020020A00001081F
:1001D00001F0FF01102A2BDB10F0070F08D010F8F8
:1001E000013B013A8B422DD010F0070F42B3F6D1FC
:1001F000F0B441EA012141EA014122F007047FF015
:1002000000070023F0E80256083C85EA010586EA6B
:10021000010685FA47F5A3FA87F586FA47F6A5FAA7
:1002200087F68EB9EED1F0BC01F0FF0102F00702B3
:1002300032B110F8013B013A83EA010313B1F8D15E
:100240000020704701387047002D06BF354603383F
:10025000073815F0010F07D1013015F4807F02BF78
:10026000013015F4C03F0130F0BC0138704700BFC9
:10027000034613F8012B002AFBD1181A01387047E6
:1002800081F0004102E000BF83F0004330B54FEA47
:1002900041044FEA430594EA050F08BF90EA020FB4
:1002A0001FBF54EA000C55EA020C7FEA645C7FEA47
:1002B000655C00F0E2804FEA5454D4EB5555B8BF6A
:1002C0006D420CDD2C4480EA020281EA030382EADB
:1002D000000083EA010180EA020281EA0303362D6D
:1002E00088BF30BD11F0004F4FEA01314FF4801C40
:1002F0004CEA113102D0404261EB410113F0004F52
:100300004FEA03334CEA133302D0524263EB430308
:1003100094EA050F00F0A780A4F10104D5F1200EA6
:100320000DDB02FA0EFC22FA05F2801841F1000101
:1003300003FA0EF2801843FA05F359410EE0A5F1D5
:1003400020050EF1200E012A03FA0EFC28BF4CF006
:10035000020C43FA05F3C01851EBE37101F00045BC
:1003600007D54FF0000EDCF1000C7EEB00006EEBC9
:100370000101B1F5801F1BD3B1F5001F0CD3490853
:100380005FEA30004FEA3C0C04F101044FEA4452AA
:1003900012F5800F80F09A80BCF1004F08BF5FEA31
:1003A000500C50F1000041EB045141EA050130BD11
:1003B0005FEA4C0C404141EB0101013C28BFB1F523
:1003C000801FE9D291F0000F04BF01460020B1FA6E
:1003D00081F308BF2033A3F10B03B3F120020CDA41
:1003E0000C3208DD02F1140CC2F10C0201FA0CF01F
:1003F00021FA02F10CE002F11402D8BFC2F1200C84
:1004000001FA02F120FA0CFCDCBF41EA0C01904039
:10041000E41AA2BF01EB0451294330BD6FEA040482
:100420001F3C1CDA0C340EDC04F11404C4F120026D
:1004300020FA04F001FA02F340EA030021FA04F37F
:1004400045EA030130BDC4F10C04C4F1200220FAD6
:1004500002F001FA04F340EA0300294630BD21FA14
:1004600004F0294630BD94F0000F83F4801306BFDA
:1004700081F480110134013D4EE77FEA645C18BFCE
:100480007FEA655C29D094EA050F08BF90EA020F65
:1004900005D054EA000C04BF1946104630BD91EA5D
:1004A000030F1EBF0021002030BD5FEA545C05D160
:1004B0004000494128BF41F0004130BD14F580049F
:1004C0003CBF01F5801130BD01F0004545F0FE4113
:1004D00041F470014FF0000030BD7FEA645C1ABF48
:1004E000194610467FEA655C1CBF0B46024650EA7F
:1004F000013406BF52EA033591EA030F41F40021AB
:1005000030BD00BF90F0000F04BF0021704730B530
:100510004FF4806404F132044FF000054FF0000105
:1005200050E700BF90F0000F04BF0021704730B5C6
:100530004FF4806404F1320410F0004548BF40429B
:100540004FF000013EE700BF42004FEAE2014FEAF0
:1005500031014FEA02701FBF12F07F4393F07F4FCB
:1005600081F06051704732F07F4208BF704793F0CE
:100570007F4F04BF41F40021704730B54FF46074E1
:1005800001F0004521F000411CE700BF50EA0102E4
:1005900008BF704730B54FF000050AE050EA01028D
:1005A00008BF704730B511F0004502D5404261EBFD
:1005B00041014FF4806404F132045FEA915C3FF43E
:1005C000D8AE4FF003025FEADC0C18BF03325FEADB
:1005D000DC0C18BF033202EBDC02C2F1200300FA8C
:1005E00003FC20FA02F001FA03FE40EA0E0021FAB1
:1005F00002F11444BDE600BF70B54FF0FF0C4CF49F
:10060000E06C1CEA11541DBF1CEA135594EA0C0F50
:1006100095EA0C0F00F0DEF82C4481EA030621EA8B
:100620004C5123EA4C5350EA013518BF52EA0335C6
:1006300041F4801143F4801338D0A0FB02CE4FF078
:100640000005E1FB02E506F00042E0FB03E54FF0A8
:100650000006E1FB03569CF0000F18BF4EF0010EA0
:10066000A4F1FF04B6F5007F64F5407404D25FEA9C
:100670004E0E6D4146EB060642EAC62141EA55514F
:100680004FEAC52040EA5E504FEACE2EB4F1FD0C91
:1006900088BFBCF5E06F1ED8BEF1004F08BF5FEA0F
:1006A000500E50F1000041EB045170BD06F00046C1
:1006B00046EA010140EA020081EA0301B4EB5C046E
:1006C000C2BFD4EB0C0541EA045170BD41F4801166
:1006D0004FF0000E013C00F3AB8014F1360FDEBF8B
:1006E000002001F0004170BDC4F10004203C35DA67
:1006F0000C341BDC04F11404C4F1200500FA05F3EA
:1007000020FA04F001FA05F240EA020001F000428A
:1007100021F0004110EBD37021FA04F642EB060100
:100720005EEA430E08BF20EAD37070BDC4F10C042A
:10073000C4F1200500FA04F320FA05F001FA04F2EE
:1007400040EA020001F0004110EBD37041F10001DA
:100750005EEA430E08BF20EAD37070BDC4F12005E5
:1007600000FA05F24EEA020E20FA04F301FA05F24D
:1007700043EA020321FA04F001F0004121FA04F2F5
:1007800020EA020000EBD3705EEA430E08BF20EAC5
:10079000D37070BD94F0000F0FD101F000464000FF
:1007A00041EB010111F4801F08BF013CF7D041EA81
:1007B000060195F0000F18BF704703F00046520085
:1007C00043EB030313F4801F08BF013DF7D043EA56
:1007D0000603704794EA0C0F0CEA135518BF95EA0C
:1007E0000C0F0CD050EA410618BF52EA4306D1D193
:1007F00081EA030101F000414FF0000070BD50EAB2
:10080000410606BF1046194652EA430619D094EA3B
:100810000C0F02D150EA013613D195EA0C0F05D125
:1008200052EA03361CBF104619460AD181EA030179
:1008300001F0004141F0FE4141F470014FF0000031
:1008400070BD41F0FE4141F4780170BD70B54FF0CC
:10085000FF0C4CF4E06C1CEA11541DBF1CEA13554C
:1008600094EA0C0F95EA0C0F00F0A7F8A4EB05042E
:1008700081EA030E52EA03354FEA013100F0888025
:100880004FEA03334FF0805545EA131343EA1263EE
:100890004FEA022245EA111545EA10654FEA0026A3
:1008A0000EF000419D4208BF964244F1FD0404F55C
:1008B000407402D25B084FEA3202B61A65EB0305B8
:1008C0005B084FEA32024FF480104FF4002CB6EB75
:1008D000020E75EB030E22BFB61A754640EA0C00F5
:1008E0005B084FEA3202B6EB020E75EB030E22BF35
:1008F000B61A754640EA5C005B084FEA3202B6EB76
:10090000020E75EB030E22BFB61A754640EA9C0034
:100910005B084FEA3202B6EB020E75EB030E22BF04
:10092000B61A754640EADC0055EA060E18D04FEAC2
:10093000051545EA16754FEA06164FEAC30343EA62
:1009400052734FEAC2025FEA1C1CC0D111F4801F2F
:100950000BD141EA00014FF000004FF0004CB6E728
:1009600011F4801F04BF01430020B4F1FD0C88BFC7
:10097000BCF5E06F3FF6AFAEB5EB030C04BFB6EBD2
:10098000020C5FEA500C50F1000041EB045170BDC5
:100990000EF0004E4EEA113114EB5C04C2BFD4EBF2
:1009A0000C0541EA045170BD41F480114FF0000E76
:1009B000013C90E645EA060E8DE60CEA135594EAF2
:1009C0000C0F08BF95EA0C0F3FF43BAF94EA0C0FF5
:1009D0000AD150EA01347FF434AF95EA0C0F7FF46A
:1009E00025AF104619462CE795EA0C0F06D152EABE
:1009F00003353FF4FDAE1046194622E750EA4106A2
:100A000018BF52EA43067FF4C5AE50EA41047FF4B2
:100A10000DAF52EA43057FF4EBAE12E74FF0FF3C17
:100A200006E000BF4FF0010C02E000BF4FF0010CE8
:100A30004DF804CD4FEA410C7FEA6C5C4FEA430C61
:100A400018BF7FEA6C5C1BD001B050EA410C0CBFB0
:100A500052EA430C91EA030F02BF90EA020F002012
:100A6000704710F1000F91EA030F58BF994208BF79
:100A700090422CBFD8176FEAE37040F00100704736
:100A80004FEA410C7FEA6C5C02D150EA013C07D18D
:100A90004FEA430C7FEA6C5CD6D152EA033CD3D0D8
:100AA0005DF8040B704700BF8446104662468C46D2
:100AB0001946634600E000BF01B5FFF7B7FF002805
:100AC00048BF10F1000F01BD4DF808EDFFF7F4FF2E
:100AD0000CBF012000205DF808FB00BF4DF808EDB9
:100AE000FFF7EAFF34BF012000205DF808FB00BFDC
:100AF0004DF808EDFFF7E0FF94BF012000205DF8FE
:100B000008FB00BF4DF808EDFFF7CEFF94BF0120B2
:100B100000205DF808FB00BF4DF808EDFFF7C4FFAB
:100B200034BF012000205DF808FB00BF4FEA410CF4
:100B30007FEA6C5C02D150EA013C0AD14FEA430CD7
:100B40007FEA6C5C02D152EA033C02D14FF0000014
:100B500070474FF0010070474FEA410212F5001252
:100B600015D211D56FF47873B3EB625212D94FEAF4
:100B7000C12343F0004343EA505311F0004F23FADE
:100B800002F018BF404270474FF00000704750EA33
:100B9000013005D111F0004008BF6FF000407047F0
:100BA0004FF00000704700BF4A0011D212F500124A
:100BB00011D20DD56FF47873B3EB62520ED44FEAB5
:100BC000C12343F0004343EA505323FA02F0704735
:100BD0004FF00000704750EA013002D14FF0FF3073
:100BE00070474FF00000704753B94AB9002908BF59
:100BF00000281CBF4FF0FF314FF0FF3000F088B9E4
:100C0000ADF1080C6DE904CE00F006F8DDF804E063
:100C1000DDE9022304B070472DE9F047089D8E46B8
:100C200004468846002B4AD18A42174662D9B2FA56
:100C300082F64EB1C6F1200301FA06F820FA03F35A
:100C4000B74043EA0808B4404FEA174E1FFA87FC42
:100C5000B8FBFEF1230C0EFB118843EA084301FBAD
:100C60000CF29A4209D9FB1801F1FF3080F0EA80BA
:100C70009A4240F2E78002393B449A1AA3B2B2FB8F
:100C8000FEF00EFB102243EA024300FB0CFC9C45E5
:100C900009D9FB1800F1FF3280F0D6809C4540F264
:100CA000D3803B44023840EA0140A3EB0C0300210F
:100CB0001DB1F3400022C5E90032BDE8F0878B4248
:100CC00005D90DB1C5E9000100210846F5E7B3FAE1
:100CD00083F1002946D1734502D3824200F2058197
:100CE000841A6EEB030201209046002DE5D0C5E981
:100CF0000048E2E7002A00F09080B2FA82F6002E67
:100D000040F0A4808A1A030C4FEA174E80B2BCB29E
:100D10000121B2FBFEFC0EFB1C2243EA024304FB52
:100D20000CF29A4207D9FB180CF1FF3802D29A4212
:100D300000F2E080C4469B1AB3FBFEF20EFB1233B6
:100D400040EA034302FB04F49C4207D9FB1802F17A
:100D5000FF3002D29C4200F2CA8002461B1B42EACC
:100D60000C40A5E7C1F120068B4022FA06F71F438D
:100D70000EFA01F420FA06F32EFA06FE4FEA17499E
:100D8000234300FA01F81FFA87FCBEFBF9F01C0CA4
:100D900009FB10EE44EA0E4400FB0CFEA64502FAE5
:100DA00001F209D93C1900F1FF3A80F09C80A64578
:100DB00040F2998002383C44A4EB0E041FFA83FEF3
:100DC000B4FBF9F309FB13444EEA044403FB0CFCA7
:100DD000A44508D93C1903F1FF3E80F08280A44568
:100DE0007FD9023B3C4443EA0040A4EB0C04A0FB47
:100DF00002EC64457346E14662D35FD05DB1B8EB67
:100E0000030264EB090404FA06F622FA01F31E4316
:100E1000CC40C5E9006400214FE7B1FBF2FC010CB6
:100E200041EA0E4180B240EA01423B4638463C4628
:100E3000B846BE462026B1FBF7F1A2EB080241EA14
:100E40000C4166E7014618E710462CE7C6F1200280
:100E50002EFA02F3B740B14020FA02F24FEA174EE1
:100E60000A43B3FBFEF8BCB20EFB1833110C41EA87
:100E7000034108FB04F9B04089454FEA104380B2B2
:100E80003ED9791808F1FF3C01D289451FD8A1EB62
:100E90000901B1FBFEF909FB04F80EFB191192B22E
:100EA00042EA0142424529D2BA1809F1FF31C4D2BF
:100EB0004245C2D2A9F102013A44BEE7F0459DD2B3
:100EC000BEEB02036CEB070C0138E14696E7A7EB9B
:100ED00009094944A8F1020CB1FBFEF909FB04F829
:100EE000DBE773467FE7504666E70846FDE63B448E
:100EF000023A33E7ACF1020C3B441CE749469CE75D
:100F0000A1EB0901C446B1FBFEF909FB04F8C4E7F3
:100F1000704700BF80B584B000AF0023FB6010E0D5
:100F2000324AFB6832F8133007EE903AF8EE677AEF
:100F30002F4AFB689B001344C3ED007AFB68013322
:100F4000FB60FB68B3F5007FEADB0023294A2849F0
:100F5000294806F0C8FA0023BB6035E0BB685B0097
:100F6000244A9B0013441B687B60BB685B00013311
:100F7000204A9B0013441B683B60D7ED017A27EEA3
:100F8000A77AD7ED007A67EEA77A77EE277AB0EEE8
:100F9000670A0DF0BFFEF0EE407A164ABB689B0070
:100FA0001344C3ED007A134ABB689B00134493EDCE
:100FB000007A124BD3ED007A77EE277A0F4BC3ED10
:100FC000007ABB680133BB60BB68FF2BC6DD0B4BEF
:100FD00093ED007ADFED0A6AC7EE267A074BC3ED80
:100FE000007A00BF1037BD4680BD00BF14570020F7
:100FF00018020020180A00203012002018120020C9
:1010000000007F4380B58AB000AFF860B9607A60B5
:101010007B684FF000021A607B681A68BB681A6030
:10102000BB681A68FB681A604F4B3B624FF00003C5
:10103000FB6100237B625BE07B6A07EE903AF8EE8F
:10104000E77A97ED087A67EE277AC7ED067A474A7E
:101050007B6A9B0013441B687B61D7ED057AB7EE72
:10106000007A77EE877AB0EE670A0DF025FE87EDFD
:10107000040AD7ED067A9FED3E7AF4EEC77AF1EED8
:1010800010FA0AD8FB6893ED007AD7ED047A77EE70
:10109000277AFB68C3ED007A27E0D7ED067A9FED4B
:1010A000357AF4EEC77AF1EE10FA0AD8BB6893ED00
:1010B000007AD7ED047A77EE277ABB68C3ED007A21
:1010C00013E0D7ED067A9FED2C7AF4EEC77AF1EEB5
:1010D00010FA00D90FE07B6893ED007AD7ED047A1F
:1010E00077EE277A7B68C3ED007A7B6A01337B62F7
:1010F0007B6AFF2BA0DDFB6893ED007ABB68D3ED24
:10110000007A37EE277A7B68D3ED007A77EE277A7C
:10111000C7ED077AD7ED077AF5EEC07AF1EE10FA4F
:1011200000DC1DE0FB68D3ED006A97ED077AC6EEA0
:10113000877AFB68C3ED007ABB68D3ED006A97ED50
:10114000077AC6EE877ABB68C3ED007A7B68D3ED79
:10115000006A97ED077AC6EE877A7B68C3ED007A5E
:1011600000BF2837BD4680BD00409C41180A0020C2
:10117000000048430000FA440000FA4580B500AF83
:101180004FF40071054806F0FFFAFFF7C3FE044A6A
:1011900004490548FFF736FF00BF80BD301200202C
:1011A00024120020201200201C12002080B584B0E0
:1011B00000AF01F00DF8304BD3ED007A9FED2F7AA0
:1011C00077EEC77AC7ED037AD7ED037A9FED2C7AD5
:1011D000F4EEC77AF1EE10FA01DD2A4BFB60D7ED91
:1011E000037AF5EEC07AF1EE10FA02D54FF0000363
:1011F000FB6097ED037ADFED226AC7EE267A9FED5A
:10120000227A67EE877AFCEEE77A17EE903A7B81D6
:101210007B89B3F5967F02D94FF496737B810123C6
:101220003B6000237B6017E002F014FD174B5B7AF4
:10123000002B05D000F0CCFF144B00225A7217E0AF
:101240003B687A6802FB03F1FF230022786800F014
:1012500091FF7B6801337B607B897A689A42E3DB8C
:101260000D2000F0D1FF01F041F8142006F066FBDC
:101270001037BD4680BD00BF181200200000E144B9
:1012800000803B4500803B45000096438054002091
:1012900080B586B000AF7860396000F099FF514B9F
:1012A000D3ED007A9FED507AF4EEC77AF1EE10FAA2
:1012B00002D54C4B4D4A1A604A4BD3ED007A9FED54
:1012C0004C7AF4EEC77AF1EE10FA02DD454B494A4A
:1012D0001A60444BD3ED007A9FED437A37EEC77A1C
:1012E000DFED456AC7EE267AC7ED057AD7ED057AB8
:1012F000F5EEC07AF1EE10FA02D54FF000037B61F3
:10130000D7ED057AB7EE007AF4EEC77AF1EE10FA6F
:1013100002DD4FF07E537B613B6807EE903AB8EEFA
:10132000677AD7ED057A67EEA76A3A687B68D31AC1
:1013300007EE903AF8EE677A66EEA77A77EE677A6C
:10134000FCEEE77A17EE902A2C4B1A602B4B1B68A9
:10135000092B02D8294B0A221A60284B1B683A68CD
:101360009A4202D2254A3B68136000233B6108E0A1
:1013700096230022FF21386900F0FCFE3B6902330E
:101380003B613B69B3F5967FF2DB0D2000F03CFF3B
:1013900000F0ACFF194B1B68184606F0CFFA00F0BE
:1013A00017FF0123FB6008E0FF2396220021F86865
:1013B00000F0E0FEFB680233FB60FB68B3F5967F4C
:1013C000F2DB0D2000F020FF00F090FF0B4B1B68BC
:1013D000184606F0B3FA00F0FBFE00BF1837BD4612
:1013E00080BD00BF181200200000E1440000E1446D
:1013F00000803B4500803B450000964428120020B9
:1014000080B58CB000AF00F0E3FEA74BD3ED007ABF
:101410009FEDA67AF4EEC77AF1EE10FA02D5A24B50
:10142000A34A1A60A04BD3ED007A9FEDA27AF4EEA6
:10143000C77AF1EE10FA02DD9B4B9F4A1A60052332
:101440007B610023FB62B4E000F0C2FE02F002FC0C
:101450009A4B5B7A002B05D000F0BAFE974B002226
:101460005A7282E1FFF78AFE8F4BD3ED007A9FED2F
:101470008F7AF4EEC77AF1EE10FA02D58A4B8C4AD5
:101480001A60894BD3ED007A9FED8A7AF4EEC77A21
:10149000F1EE10FA02DD844B874A1A600023BB622A
:1014A00038E0FA6ABB6A13447B607F4BD3ED007A65
:1014B0009FED837AF4EEC77AF1EE10FA06D5FE239B
:1014C000F7220821786800F055FE20E0764BD3ED36
:1014D000007A9FED7B7AF4EEC77AF1EE10FA10DD18
:1014E000714BD3ED007A9FED777AF4EEC77AF1EE87
:1014F00010FA06D5D323FB220921786800F03AFEC2
:1015000005E0BB235322FE21786800F033FEBB6A5E
:101510000133BB62BA6A7B699A42C2DB00237B62F9
:101520003BE0FB6AC3F5957301337A6A9B1ABB6093
:101530005D4BD3ED007A9FED627AF4EEC77AF1EE5F
:1015400010FA06D5FE23F7220821B86800F012FE33
:1015500020E0554BD3ED007A9FED597AF4EEC77A2F
:10156000F1EE10FA10DD504BD3ED007A9FED557A75
:10157000F4EEC77AF1EE10FA06D5D323FB22092147
:10158000B86800F0F7FD05E0BB235322FE21B868E0
:1015900000F0F0FD7B6A01337B627A6A7B699A42D4
:1015A000BFDB2D2000F030FE00F0A0FEFB6A01330F
:1015B000FB627B69C3F19603FA6A9A427FF744AFF4
:1015C00000233B62CAE002F045FB3C4B5B7A002BF8
:1015D00005D000F0FDFD394B00225A72C5E0FFF73F
:1015E000CDFD314BD3ED007A9FED307AF4EEC77A22
:1015F000F1EE10FA02D52C4B2D4A1A602A4BD3ED8E
:10160000007A9FED2C7AF4EEC77AF1EE10FA02DD43
:10161000254B294A1A600023FB613DE03B6AC3F178
:101620009502FB69D31AFB60FB68002B31DB1E4B74
:10163000D3ED007A9FED227AF4EEC77AF1EE10FA3C
:1016400006D5FE23F7220821F86800F093FD20E07C
:10165000154BD3ED007A9FED1A7AF4EEC77AF1EECE
:1016600010FA10DD104BD3ED007A9FED167AF4EEF0
:10167000C77AF1EE10FA06D5D323FB220921F868C8
:1016800000F078FD05E0BB235322FE21F86800F04E
:1016900071FDFB690133FB61FA697B699A42BDDB2D
:1016A0000023BB614EE000BF181200200000E1449F
:1016B0000000E14400803B4500803B458054002011
:1016C0000000FA4400002F453B6A9633BA69134480
:1016D0003B613B69B3F5967F31DA254BD3ED007A58
:1016E0009FED247AF4EEC77AF1EE10FA06D5FE23C8
:1016F000F7220821386900F03DFD20E01C4BD3EDB6
:10170000007A9FED1C7AF4EEC77AF1EE10FA10DD44
:10171000174BD3ED007A9FED187AF4EEC77AF1EE0D
:1017200010FA06D5D323FB220921386900F022FDE7
:1017300005E0BB235322FE21386900F01BFDBB6985
:101740000133BB61BA697B699A42BDDB2D2000F091
:101750005BFD00F0CBFD3B6A01333B627B69C3F16B
:1017600096033A6A9A427FF72EAF3037BD4680BD66
:10177000181200200000FA4400002F4580B586B002
:1017800000AF00F025FD354BD3ED007A9FED347AA4
:1017900037EEC77ADFED336AC7EE267AC7ED057AF2
:1017A000D7ED057AB7EE007AF4EEC77AF1EE10FACB
:1017B00002DD4FF07E537B61D7ED057AF5EEC07AFE
:1017C000F1EE10FA02D54FF000037B61D7ED057AF8
:1017D0009FED257A67EE877AFCEEE77AC7ED017A0E
:1017E0003B79DBB21A46214B1A6000233B6123E0B0
:1017F0000AF06CFD03465A42DBB2D2B258BF5342E4
:10180000FB730AF063FD03465A42DBB2D2B258BF03
:101810005342BB730AF05AFD03465A42DBB2D2B2BE
:1018200058BF53427B73F97BBA7B7B7B386900F0EE
:10183000A1FC3B6901333B613B69B3F5967FD7DB84
:101840000A4B1B68184600F0DFFC00F04FFD322009
:1018500006F074F800BF1837BD4680BD181200208E
:101860000000E14400009644000034422C120020A5
:1018700080B586B002AF0346FB7107F10F02F91D78
:101880004FF47A7300930123034808F0A4F8FB7B1C
:1018900018461037BD4680BD3455002080B590B045
:1018A00000AF7860396000F021F9034683F001034E
:1018B000DBB2002B01D0002311E100224FF4805154
:1018C000894807F033FB002387F83D30D020FFF72D
:1018D000CFFF0020FFF7CCFF03461B027B870020D1
:1018E000FFF7C6FF03461A467B8F13437B877B8F28
:1018F000DB087B879020FFF7BBFF0020FFF7B8FFD6
:1019000003461B023B870020FFF7B2FF03461A463F
:101910003B8F13433B873B8FDB083B8797F83D307A
:101920005B0040333B447A8F23F8342C97F83D30EA
:101930000A335B0040333B443A8F23F8342C97F84A
:101940003D30013387F83D3000F0D0F80346002BDE
:1019500003D097F83D30092BB8D901224FF48051BC
:10196000614807F0E3FA97F83D300A2B01D00023D5
:10197000B5E0012387F83E30002387F83F3039E097
:1019800097F83F305B0040333B4433F8342C97F8F2
:101990003F3001335B0040333B4433F8343C9A42E0
:1019A00023D997F83F3001335B0040333B4433F891
:1019B000343CFB8697F83F3097F83F2001325B00BC
:1019C00040333B4433F8341C530040333B440A4615
:1019D00023F8342C97F83F305B0040333B44FA8EB9
:1019E00023F8342C002387F83E3097F83F3001333A
:1019F00087F83F3097F83F2097F83D30013B9A42F7
:101A0000BED397F83E3083F00103DBB2002BB0D198
:101A1000012387F83E30002387F83F3040E097F8F5
:101A20003F300A335B0040333B4433F8342C97F8A3
:101A30003F3001330A335B0040333B4433F8343CDE
:101A40009A4228D997F83F3001330A335B0040337C
:101A50003B4433F8343CFB8697F83F3097F83F20FF
:101A600001320A335B0040333B4433F8341C02F14B
:101A70000A035B0040333B440A4623F8342C97F8B2
:101A80003F300A335B0040333B44FA8E23F8342C5A
:101A9000002387F83E3097F83F30013387F83F3016
:101AA00097F83F2097F83D30013B9A42B7D397F81B
:101AB0003E3083F00103DBB2002BA9D1BB8A1A466A
:101AC000FB8A13445B089AB27B681A803B8D1A46E6
:101AD0007B8D13445B089AB23B681A800123184639
:101AE0004037BD4680BD00BF0004024080B582B0D3
:101AF00000AF2021074807F001FA0346FB71FB798C
:101B0000002B0CBF01230023DBB218460837BD466B
:101B100080BD00BF0008024080B588B000AF78608B
:101B2000396007F10C0207F10E0311461846FFF762
:101B3000B5FE034683F00103DBB2002B01D0002386
:101B40002AE0FB89BB61BB89FB6107F1180107F142
:101B50001003134A184600F077FD3B69B3F5A07FE8
:101B600002DB40F23F133B617B69EF2B01DDEF238A
:101B70007B613B69002B01DA00233B617B69002B11
:101B800001DA00237B613B691AB27B681A807B69AA
:101B90001AB23B681A80012318462037BD4680BD23
:101BA00048120020B0B58CB000AF134B3C461D4628
:101BB0000FCD0FC495E8030084E8030040F69A3384
:101BC000BB6140F29E23FB6140F261333B6240F215
:101BD000C7237B6240F21533BB6240F6A743FB622A
:101BE00007F118013B46054A184600F0EFFB00BF1D
:101BF0003037BD46B0BD00BFB80001084812002014
:101C000080B500AF084B47F6EF321A80074B4FF60E
:101C1000FF721A80054B1B881A46D2211E2000F045
:101C200007F800BF80BD00BF6412002066120020CC
:101C3000F0B587B004AF0346FB800B46BB8013466C
:101C40007B80B7F90600B7F904107B880F2201F0FA
:101C5000C0F9B7F90600B7F904107B88122201F029
:101C6000B8F9FB8805339BB218B2BB880A3B9BB21C
:101C70001CB2FB8805339BB21DB2BB880A339BB2F2
:101C80001EB2FB88053B9BB21BB2B7F904207988D2
:101C900002910192009333462A46214601F06DFAE3
:101CA00000BF0C37BD46F0BD80B582B000AF034623
:101CB000FB80094B1B88FA889A4209D0064AFB88A8
:101CC0001380054B1B881A46D2211E20FFF7B0FF58
:101CD00000BF0837BD4680BD6612002080B588B0C1
:101CE00006AF03460A46FB801346BB800E4B1B889B
:101CF000FA889A4214D00C4AFB8813800A4B1B883E
:101D00004FF6FF720492BA8803920293074B019335
:101D10000A230093282378226421642000F042F9EA
:101D200000BF0837BD4680BD68120020D000010802
:101D300080B588B006AF03460A46FB801346BB80D9
:101D40000E4B1B88FA889A4214D00C4AFB881380E9
:101D50000A4B1B884FF6FF720492BA8803920293D3
:101D6000074B01930A2300932823782232211E2057
:101D700000F018F900BF0837BD4680BD6A12002088
:101D8000DC00010880B588B006AF03460A46FB8038
:101D90001346BB800E4B1B88FA889A4214D00C4A1B
:101DA000FB8813800A4B1B884FF6FF720492BA8897
:101DB00003920293074B01930A230093282378226E
:101DC0003221B42000F0EEF800BF0837BD4680BDD8
:101DD0006C120020E800010880B588B006AF034609
:101DE0000A46FB801346BB800E4B1B88FA889A423A
:101DF00014D00C4AFB8813800A4B1B884FF6FF72E5
:101E00000492BA8803920293074B01930A2300932A
:101E10002823782278211E2000F0C4F800BF08375C
:101E2000BD4680BD6E120020F000010880B588B06C
:101E300006AF03460A46FB801346BB800E4B1B8849
:101E4000FA889A4214D00C4AFB8813800A4B1B88EC
:101E50004FF6FF720492BA8803920293074B0193E4
:101E60000A230093282378227821B42000F09AF8DE
:101E700000BF0837BD4680BD70120020F800010881
:101E800098B500AF0D4801F045FC01F045FD034653
:101E90001C4601F059FD0346DB88E31A9BB2013B67
:101EA0009BB21946002001F0C5FC00214FF6FF70DF
:101EB00001F040FC00F024F800BF98BD08000020AD
:101EC00098B500AF0D4801F025FC01F025FD034653
:101ED0001C4601F039FD0346DB88E31A9BB2013B47
:101EE0009BB21946002001F0A5FC00214FF6FF70BF
:101EF00001F020FC00F0ACF800BF98BD0800002005
:101F000080B588B006AF002000F064FD05F00AFD42
:101F1000786001F00DFD0346012B04D001F008FDAF
:101F20000346032B10D101F0EBFC03461A461B4B72
:101F30001B88D31ADA0F13445B109BB2174A002197
:101F4000184601F0E9FA0FE001F0E6FC03461A46F4
:101F5000124B5B88D31ADA0F13445B109BB20F4A03
:101F60001946002001F0D8FA4FF6FF7304930023BE
:101F700003931F2302930A4B01930A230093282300
:101F800078226421642000F00DF805F0CBFC0246B5
:101F90007B68D31A18460837BD4680BD34590308FC
:101FA000D0000108B0B586B002AF0446084611461D
:101FB0001A462346FB800346BB800B467B801346B4
:101FC0003B80B7F90600B7F90410B7F90240B7F93A
:101FD0000050B7F920303A8E019200932B462246EA
:101FE00001F035FAB7F90600B7F90410B7F9024065
:101FF000B7F90050B7F920303A8D019200932B4683
:10200000224600F071FE7B885B089AB2FB8813447D
:102010009CB2786AFEF72CF903469BB29B009BB2F8
:10202000E31AFB813B885B089AB2BB8813449BB2DE
:10203000083BBB81BA8DB989F889BB8D00931346E3
:102040007A6A01F0DBF900BF1037BD46B0BD000071
:1020500080B588B006AF002000F0BCFC05F062FC43
:10206000786001F065FC0346012B04D001F060FCB0
:102070000346032B10D101F043FC03461A46384BAC
:102080001B88D31ADA0F13445B109BB2344A002129
:10209000184601F041FA0FE001F03EFC03461A46F3
:1020A0002F4B5B88D31ADA0F13445B109BB22C4A78
:1020B0001946002001F030FA4FF6FF730493002315
:1020C00003931F230293274B01930A230093282392
:1020D000782232211E20FFF765FF4FF6FF7304932D
:1020E000002303931F2302931F4B01930A230093A2
:1020F000282378223221B420FFF754FF4FF6FF73D4
:102100000493002303931F230293184B01930A2384
:1021100000932823782278211E20FFF743FF4FF6F3
:10212000FF730493002303931F230293104B019327
:102130000A230093282378227821B420FFF732FF66
:102140004FF6FF72D2211E20FFF772FD05F0EAFB69
:1021500002467B68D31A18460837BD4680BD00BFCB
:1021600040B10508DC000108E8000108F0000108A2
:10217000F800010880B485B000AFF860B9607A60FB
:102180003B60FB68D9B2114AFB6802F823107B68F8
:10219000D9B20E4AFB689B0013440A465A70BB68CA
:1021A000D9B20A4AFB689B0013440A469A703B68FE
:1021B000D9B2064AFB689B0013440A46DA7000BF96
:1021C0001437BD465DF8047B704700BF74120020D1
:1021D00080B582B000AF00237B6008E000230022BE
:1021E00000217868FFF7C6FF7B6801337B607B685E
:1021F000B3F5967FF2DB0D2000F006F800F076F8DC
:1022000000BF0837BD4680BDB0B586B000AF78606E
:102210007B682D2B01DD2D237B6000237B6153E048
:102220002E4A7B6912F823102D4A7B6902F823108D
:1022300001233B6142E07B68C3F15A0307EE903A09
:10224000F8EEE77AC7ED037AD7ED037A9FED257AAA
:1022500027EE877ADFED246AC7EE267AC7ED037A88
:102260001E4A7B699B001A443B6913441B7818463D
:10227000FEF758F904460D46F868FEF765F9024680
:102280000B4643EC102B0CF0E3FC53EC102B2046D8
:102290002946FEF7DBFA02460B4610461946FEF7C2
:1022A00083FC0346D9B20E4A7B699B001A443B6902
:1022B00013440A461A703B6901333B613B69032BA7
:1022C000B9DD7B6901337B617B69B3F5967FA7DB61
:1022D00000BF00BF1837BD46B0BD00BF741200205C
:1022E00024170020DB0F49400000344380B586B03E
:1022F00000AF00237B6100233B6136E02F4A3B693E
:102300009B0013445B781A042C493B699B000B44E7
:102310009B781B021A4329493B699B000B44DB78DD
:1023200013437B601723FB6019E00122FB6802FA6C
:1023300003F31A467B681340002B05D0204A7B69C3
:102340003C2122F8131004E01D4A7B691E2122F86B
:1023500013107B6901337B61FB68013BFB60FB6809
:10236000002BE2DA3B6901333B613B69B3F5967FB1
:10237000C4DB0023BB600AE0114A7B69002122F81C
:1023800013107B6901337B61BB680133BB60BB68A1
:10239000312BF1DD7B699BB2094A0021094807F026
:1023A000F9FE00BF084B1B68002BFBD0064B002238
:1023B0001A6000BF1837BD4680BD00BF241700203B
:1023C000D41B0020D4550020185F002080B487B0B3
:1023D00000AFF860B9607A6000237B61BB681A685F
:1023E000BB6810331B68D31ABA6808325168BA68E0
:1023F000103252688A1A03FB02F2BB68083319686C
:10240000BB6810331B68CB1AB9684868B9681031CB
:102410004968411A01FB03F3D21A7B689A617B6811
:102420009B69002B03D14FF0FF337B6105E1FB6813
:102430001A68FB6810331B68D31ABA6808325168EF
:10244000BA68103252688A1A03FB02F2FB6808333A
:102450001968FB6810331B68CB1AB9684868B968FB
:1024600010314968411A01FB03F3D21A7B681A60E4
:10247000BB681A68BB6810331B68D31AFA68083245
:102480001168FA68103212688A1A03FB02F2FB68BC
:102490001968FB6810331B68CB1AB96808310868E3
:1024A000B96810310968411A01FB03F3D21A7B683D
:1024B0005A60BB6810331B68FA680832126803FB65
:1024C00002F2BB6808331B68F9681031096801FB28
:1024D00003F3D31ABA68526803FB02F2BB681B68A5
:1024E000F9681031096803FB01F1BB6810331B6800
:1024F000F868006800FB03F3CB1AB9680831496833
:1025000001FB03F31A44BB6808331B68F9680968C8
:1025100003FB01F1BB681B68F8680830006800FB2A
:1025200003F3CB1AB9681031496801FB03F31A446D
:102530007B689A60FB685A68FB6810335B68D31A43
:10254000BA6808325168BA68103252688A1A03FBB6
:1025500002F2FB6808335968FB6810335B68CB1ADA
:10256000B9684868B96810314968411A01FB03F33A
:10257000D21A7B68DA60BB681A68BB6810331B68C4
:10258000D31AFA6808325168FA68103252688A1A07
:1025900003FB02F2FB685968FB6810335B68CB1AD7
:1025A000B96808310868B96810310968411A01FB37
:1025B00003F3D21A7B681A61BB6810331B68FA6890
:1025C0000832526803FB02F2BB6808331B68F968E3
:1025D0001031496801FB03F3D31ABA68526803FB50
:1025E00002F2BB681B68F9681031496803FB01F10E
:1025F000BB6810331B68F868406800FB03F3CB1A14
:10260000B9680831496801FB03F31A44BB68083311
:102610001B68F968496803FB01F1BB681B68F8682F
:102620000830406800FB03F3CB1AB96810314968E1
:1026300001FB03F31A447B685A617B6918461C3717
:10264000BD465DF8047B704780B487B000AFF8608A
:10265000B9607A6000237B617B689B69002B2CD07A
:102660007B681B68BA68126803FB02F27B685B68D0
:10267000B968496801FB03F31A447B689B681A44F4
:102680007B689B6992FBF3F2FB681A607B68DB68EE
:10269000BA68126803FB02F27B681B69B968496873
:1026A00001FB03F31A447B685B691A447B689B69EE
:1026B00092FBF3F2FB685A6002E04FF0FF337B615C
:1026C0007B6918461C37BD465DF8047B70470000E7
:1026D00080B500AF01220221024806F027FC00BFAE
:1026E00080BD00BF0004024080B582B002AF00236D
:1026F000019301230093002300220121002001F017
:1027000085F903461A46AF4B1A7000230193012343
:102710000093002301220021002001F077F90346F5
:102720001A46A94B1A70002301930123009300233A
:1027300000220021012001F069F903461A46A34B4B
:102740001A70002301930123009300230122012129
:10275000012001F05BF903461A469D4B1A70FFF702
:10276000B7FF01F029F9282001F030F9CF2001F05E
:102770002DF9002001F03AF9832001F037F93020DB
:1027800001F034F9ED2001F021F9642001F02EF977
:10279000032001F02BF9122001F028F9812001F02B
:1027A00025F9E82001F012F9852001F01FF9012038
:1027B00001F01CF9792001F019F9CB2001F006F99C
:1027C000392001F013F92C2001F010F9002001F05C
:1027D0000DF9342001F00AF9022001F007F9F72081
:1027E00001F0F4F8202001F001F9EA2001F0EEF800
:1027F000002001F0FBF8002001F0F8F8C02001F003
:10280000E5F8262001F0F2F8C12001F0DFF81120F0
:1028100001F0ECF8C52001F0D9F8352001F0E6F818
:102820003E2001F0E3F8C72001F0D0F8BE2001F00F
:10283000DDF8362001F0CAF8624B1B78184601F02B
:10284000D5F83A2001F0C2F8552001F0CFF8B120B8
:1028500001F0BCF8002001F0C9F81B2001F0C6F817
:10286000F22001F0B3F8082001F0C0F8262001F0B2
:10287000ADF8012001F0BAF8E02001F0A7F81F2020
:1028800001F0B4F81A2001F0B1F8182001F0AEF808
:102890000A2001F0ABF80F2001F0A8F8062001F0A3
:1028A000A5F8452001F0A2F8872001F09FF832201A
:1028B00001F09CF80A2001F099F8072001F096F841
:1028C000022001F093F8072001F090F8052001F0B4
:1028D0008DF8002001F08AF8E12001F077F800205F
:1028E00001F084F8252001F081F8272001F07EF81E
:1028F000052001F07BF8102001F078F8092001F0A4
:1029000075F83A2001F072F8782001F06FF84D2048
:1029100001F06CF8052001F069F8182001F066F864
:102920000D2001F063F8382001F060F83A2001F042
:102930005DF81F2001F05AF82A2001F047F8002026
:1029400001F054F8002001F051F8002001F04EF899
:10295000EF2001F04BF82B2001F038F8002001F0B7
:1029600045F8002001F042F8012001F03FF83F2037
:1029700001F03CF8B72001F029F8072001F036F803
:10298000B62001F023F80A2001F030F8822001F08F
:102990002DF8272001F02AF8002001F027F8112057
:1029A00001F014F8642004F0C9FF292001F00EF8AA
:1029B000642004F0C3FF2C2001F008F800BFBD46DE
:1029C00080BD00BF7C5400207D5400207E54002038
:1029D0007F54002090B585B000AF0346FB8000F027
:1029E0008FFF03461C4600F097FF034604FB03F3EA
:1029F000BB6000F085FF0346013B9CB200F08CFFFA
:102A00000346013B9BB222460021002000F02CFF30
:102A10000023FB6006E0FB88184600F0E7FFFB6838
:102A20000133FB60FA68BB689A42F4D300BF00BF71
:102A30001437BD4690BD000080B582B000AF03469C
:102A4000FB800B46BB8013467B800C4B1B88FA88AF
:102A50009A420FD2094B5B88BA889A420AD2BB8845
:102A6000FA88B988F88800F0FFFE7B88184600F0E5
:102A7000BDFF00E000BF0837BD4680BD200000203C
:102A800090B585B000AF0446084611461A46234665
:102A9000FB800346BB800B467B8013463B80BA8895
:102AA000FB889A4205D2FB887B81BB88FB807B89AF
:102AB000BB80154B1B88BA889A4203D3124B1B88E4
:102AC000013BBB80104B1B88FA889A4203D30E4B04
:102AD0001B88013BFB807B88BA887988F88800F0E6
:102AE000C3FEFB88FB6006E03B88184600F07EFFD3
:102AF000FB680133FB60BB88FA689A42F4DD00BFD3
:102B000000BF1437BD4690BD2000002090B585B0B1
:102B100000AF0446084611461A462346FB8003468A
:102B2000BB800B467B8013463B807A88BB889A42E9
:102B300005D2BB887B817B88BB807B897B801A4BDD
:102B40001B88FA889A4203D3174B1B88013BFB80F2
:102B5000154B5B88BA889A4203D3134B5B88013BC1
:102B6000BB80114B5B887A889A4203D30E4B5B88FB
:102B7000013B7B807B88FA88B988F88800F074FE76
:102B8000BB88FB6006E03B88184600F02FFFFB681F
:102B90000133FB607B88FA689A42F4DD00BF00BF16
:102BA0001437BD4690BD00BF2000002090B589B00D
:102BB00000AF0446084611461A462346FB800346EA
:102BC000BB800B467B8013463B80B7F90020B7F9EA
:102BD0000430D31A83EAE372A2EBE372B7F902106E
:102BE000B7F90630CB1A002BB8BF5B429A42CCBF74
:102BF00001230023DBB27B83B7F91A30002B0BD003
:102C0000FB883B83BB88FB803B8BBB807B88FB8244
:102C10003B887B80FB8A3B80B7F90620B7F90230FE
:102C20009A420BDDFB88BB827B88FB80BB8A7B8062
:102C3000BB887B823B88BB807B8A3B807A88FB8811
:102C4000D31A9BB23B82B7F90020B7F90430D31AEC
:102C5000002BB8BF5B42FB81B7F91030DA0F134489
:102C60005B10FB83B7F90420B7F900309A4202DA0F
:102C70000123BB832DE04FF6FF73BB8329E0B7F937
:102C80001A30002B06D0BB88F9883A8E1846FFF719
:102C9000D3FE05E0FB88B9883A8E1846FFF7CCFED4
:102CA000FA8BFB89D31A9BB2FB83B7F91E30002B3A
:102CB00009DABA88BB8B13449BB2BB80FA8B3B8A80
:102CC00013449BB2FB83B7F906309BB201339BB22E
:102CD000FB80B7F90620B7F902309A42CFDD00BF7A
:102CE00000BF2437BD4690BD90B585B002AF044605
:102CF000084611461A462346FB800346BB800B4616
:102D00007B8013463B80FA883B8B134498B2FA8849
:102D10007B8813449AB23B8BD31A99B2BA88BB8B87
:102D2000FFF7AEFEFA883B8B134498B2FA887B8893
:102D300013449AB23B8BD31A99B2BA883B88134496
:102D40009BB2013B9AB2BB8BFFF79AFEF888BA8818
:102D50003B8B134499B2BA883B8813449AB23B8B9D
:102D6000D31A9AB2BB8BFFF7D1FEFA887B88134443
:102D70009BB2013B98B2BA883B8B134499B2BA8894
:102D80003B8813449AB23B8BD31A9AB2BB8BFFF7A2
:102D9000BDFEFA883B8B13449BB218B2BA883B8BBA
:102DA00013449BB219B2B7F91820BB8B00930123CF
:102DB00000F04BF8FA887B8813449AB23B8BD31A05
:102DC0009BB2013B9BB218B2BA883B8B13449BB2B7
:102DD00019B2B7F91820BB8B0093022300F035F825
:102DE000FA887B8813449AB23B8BD31A9BB2013B7F
:102DF0009BB218B2BA883B8813449AB23B8BD31A61
:102E00009BB2013B9BB219B2B7F91820BB8B009360
:102E1000042300F01AF8FA883B8B13449BB218B2D3
:102E2000BA883B8813449AB23B8BD31A9BB2013BBE
:102E30009BB219B2B7F91820BB8B0093082300F09E
:102E400004F800BF0C37BD4690BD90B587B000AF09
:102E50000446084611461A462346FB800346BB80BB
:102E60000B467B8013467B707B88C3F101039BB2CA
:102E7000FB820123BB827B881A46D203D31A5B00F4
:102E80009BB27B8200233B827B88FB8195E0B7F974
:102E90001630002B0EDBB7F90E309BB2013B9BB214
:102EA000FB817B8A02339BB27B82FA8A7B8A134442
:102EB0009BB2FB82B7F910309BB201339BB23B82CD
:102EC000BB8A02339BB2BB82FA8ABB8A13449BB291
:102ED000FB827B7803F00403002B17D0FA883B8A2F
:102EE000134498B2BA88FB8913449BB23A8D1946B1
:102EF000FFF7A2FDFA88FB89134498B2BA883B8A8F
:102F000013449BB23A8D1946FFF796FD7B7803F088
:102F10000203002B17D0FA883B8A134498B2BA8870
:102F2000FB89D31A9BB23A8D1946FFF785FDFA88C3
:102F3000FB89134498B2BA883B8AD31A9BB23A8D64
:102F40001946FFF779FD7B7803F00803002B17D0B3
:102F5000FA88FB89D31A98B2BA883B8A13449BB289
:102F60003A8D1946FFF768FDFA883B8AD31A98B262
:102F7000BA88FB8913449BB23A8D1946FFF75CFD72
:102F80007B7803F00103002B17D0FA88FB89D31A52
:102F900098B2BA883B8AD31A9BB23A8D1946FFF78A
:102FA0004BFDFA883B8AD31A98B2BA88FB89D31AA8
:102FB0009BB23A8D1946FFF73FFDB7F91020B7F9DC
:102FC0000E309A42FFF663AF00BF00BF1C37BD460C
:102FD00090BD90B587B000AF0446084611461A462A
:102FE0002346FB800346BB800B467B8013463B8019
:102FF0007B88C3F101039BB2FB820123BB827B88E8
:103000001A46D203D31A5B009BB27B8200233B8219
:103010007B88FB81F888BA887B8813449BB23A8806
:103020001946FFF709FDF888BA887B88D31A9BB246
:103030003A881946FFF700FDFA887B8813449BB253
:10304000B9883A881846FFF7F7FCFA887B88D31AC4
:103050009BB2B9883A881846FFF7EEFC81E0B7F9D1
:103060001630002B0EDBB7F90E309BB2013B9BB242
:10307000FB817B8A02339BB27B82FA8A7B8A134470
:103080009BB2FB82B7F910309BB201339BB23B82FB
:10309000BB8A02339BB2BB82FA8ABB8A13449BB2BF
:1030A000FB82FA883B8A134498B2BA88FB8913449E
:1030B0009BB23A881946FFF7BFFCFA883B8AD31ABD
:1030C00098B2BA88FB8913449BB23A881946FFF735
:1030D000B3FCFA883B8A134498B2BA88FB89D31AA6
:1030E0009BB23A881946FFF7A7FCFA883B8AD31AA5
:1030F00098B2BA88FB89D31A9BB23A881946FFF76F
:103100009BFCFA88FB89134498B2BA883B8A134423
:103110009BB23A881946FFF78FFCFA88FB89D31ACD
:1031200098B2BA883B8A13449BB23A881946FFF793
:1031300083FCFA88FB89134498B2BA883B8AD31A75
:103140009BB23A881946FFF777FCFA88FB89D31AB5
:1031500098B2BA883B8AD31A9BB23A881946FFF7CD
:103160006BFCB7F91020B7F90E309A42FFF677AF33
:1031700000BF00BF1C37BD4690BD90B585B002AF03
:103180000446084611461A462346FB800346BB8088
:103190000B467B8013463B80B7F90040B7F902200D
:1031A000B7F90410B7F906003B8C00932346FFF7EC
:1031B000FDFCB7F91C40B7F91820B7F90010B7F9B2
:1031C00002003B8C00932346FFF7F0FCB7F9044064
:1031D000B7F90620B7F91C10B7F918003B8C00931B
:1031E0002346FFF7E3FC00BF0C37BD4690BD90B50A
:1031F00087B000AF0446084611461A462346FB80B6
:103200000346BB800B467B8013467B707B88C3F1F3
:1032100001039BB2FB820123BB827B881A46D20347
:10322000D31A5B009BB27B8200233B827B88FB81AD
:103230007BE0B7F91630002B0EDBB7F90E309BB2EE
:10324000013B9BB2FB817B8A02339BB27B82FA8A71
:103250007B8A13449BB2FB82B7F910309BB20133D7
:103260009BB23B82BB8A02339BB2BB82FA8ABB8A87
:1032700013449BB2FB827B7803F00103002B27D021
:10328000FA883B8A134498B2BA88FB89D31A99B258
:10329000BA88FB8913449AB23B8D13449BB2013325
:1032A0009AB2BB8DFFF732FCFA88FB89134498B2BF
:1032B000BA883B8AD31A99B2BA883B8A13449AB225
:1032C0003B8D13449BB201339AB2BB8DFFF71EFCBA
:1032D0007B7803F00203002B27D0FA883B8AD31AAD
:1032E00098B2BA88FB89D31A99B2BA88FB89134479
:1032F0009AB23B8D13449BB201339AB2BB8DFFF758
:1033000005FCFA88FB89D31A98B2BA883B8AD31A8B
:1033100099B2BA883B8A13449AB23B8D13449BB24C
:1033200001339AB2BB8DFFF7F1FBB7F91020B7F963
:103330000E309A42FFF67DAF00BF00BF1C37BD467E
:1033400090BD000090B585B000AF04460846114618
:103350001A462346FB800346BB800B467B80134600
:103360003B80B7F90630244A128893423FDAB7F916
:103370000430214A5288934239DAB7F90620B7F966
:10338000023013441C4A1288934205DD1A4B1A88F6
:10339000FB88D31A9BB27B80B7F90420B7F90030C1
:1033A0001344154A5288934205DD134B5A88BB8853
:1033B000D31A9BB23B80BB88FB810EE0F888FA8869
:1033C0007B88134499B2FA893B8CFFF759FBB7F914
:1033D0000E309BB201339BB2FB81B7F90E20B7F9D7
:1033E0000410B7F900300B449A42E7DD00E000BF5B
:1033F0001437BD4690BD00BF2000002090B589B0B5
:1034000002AFBA601A460346FB810B46BB811346E6
:10341000FB80FB89FB8211E0B7F91600B7F90C10AD
:10342000BB681A78FC883B8D0093234600F0C8F8EF
:10343000FB8A0833FB82BB680133BB60BB681B7827
:10344000002BE9D100BF00BF1C37BD4690BD90B531
:1034500085B002AF0446084611461A462346FB8053
:103460000346BB800B467B8013463B80FA883B8B30
:1034700013449BB218B27A883B8B5B009BB2D31A81
:103480009BB21AB2B7F90040B7F90410BB8B009396
:103490002346FFF757FFFA887B8813449AB23B8B89
:1034A000D31A9BB2013B9BB218B2BA883B8B134430
:1034B0009BB219B23A883B8B5B009BB2D31A9BB28A
:1034C000013B9BB21BB2B7F91840BA8B0192009333
:1034D00001232246FFF78BFEFA883B8B13449BB2F5
:1034E00018B2BA883B8B13449BB219B23A883B8B13
:1034F0005B009BB2D31A9BB2013B9BB21BB2B7F9E4
:103500001840BA8B0192009302232246FFF76FFE08
:1035100000BF0C37BD4690BD80B584B000AF0346F8
:103520003A60FB800B46BB80244B1B88FA889A428A
:103530003BD2224B5B88BA889A4236D2FB883A68E3
:10354000128813441D4A1288934230DCBB883A68C3
:1035500052881344194A528893422ADC0023FB60A4
:103560001CE0FB689AB2BB88134499B23B689B6825
:103570003A6892881046FA6800FB02F21A443B68E7
:103580009B8818463B689B79DB08DBB290FBF3F322
:10359000F88800F0E5F9FB680133FB603B685B8865
:1035A0001A46FB689342DCDB04E000BF02E000BF88
:1035B00000E000BF1037BD4680BD00BF20000020E6
:1035C00090B585B000AF0446084611461A4623461A
:1035D000FB800346BB800B46FB7013463B80B7F96C
:1035E00006304A4A1288934280F28C80B7F9043040
:1035F000464A5288934280F28580B7F90630444AA1
:10360000926892881344002B7CDBB7F90430404A5F
:103610009268D2881344002B74DB3D4B9B68DB8897
:10362000DB089BB2BB720023FB730023BB7361E01A
:1036300000233B7355E0364B9B681B68FA78203AB1
:1036400033498968C98801FB02F2B97A02FB01F1AA
:10365000BA7BB87A00FB02F211443A7B0A44134465
:103660001B787B730023FB7232E097F90D30002B3F
:1036700012DAFB7A9AB2FB8813449AB2FB7B9BB2B4
:10368000134498B2BB7B9AB2BB8813449BB23A886E
:103690001946FFF7D1F915E03A8C3B889A4211D0D0
:1036A000FB7A9AB2FB8813449AB2FB7B9BB2134419
:1036B00098B2BB7B9AB2BB8813449BB23A8C194632
:1036C000FFF7BAF97B7B5B007B73FB7A0133FB72FC
:1036D000FB7A072BC9D9FB7B0833FB733B7B013398
:1036E0003B733A7BBB7A9A42A5D30023FB73BB7B27
:1036F0000133BB73BB7B9AB2054B9B68DB889A4254
:1037000096D300E000BF1437BD4690BD20000020D6
:103710001000002080B483B000AF7860044A7B685A
:10372000936000BF0C37BD465DF8047B704700BF57
:103730001000002080B483B000AF03460A46FB802F
:103740001346BB80FB88054A1360BB88034A53605D
:1037500000BF0C37BD465DF8047B704710000020A9
:1037600080B582B000AF0346FB712D4AFB7913711F
:10377000362000F02BF92A4B1B79032B3ED801A2EF
:1037800052F823F095370008C9370008AF37000812
:10379000E3370008234B1B78184600F027F9204B2D
:1037A000F0221A801E4B4FF4A0725A8027E01E4B65
:1037B0001B78184600F01AF9194BF0221A80184BA2
:1037C0004FF4A0725A801AE0184B1B78184600F08C
:1037D0000DF9134B4FF4A0721A80114BF0225A804E
:1037E0000DE0134B1B78184600F000F90C4B4FF41A
:1037F000A0721A800A4BF0225A8000E000BF084BEA
:103800001B88013B9AB2064B5B88013B9BB20021AF
:10381000002000F029F800BF0837BD4680BD00BF7A
:10382000200000207C5400207E5400207D54002085
:103830007F54002080B582B000AF03460A46FB806B
:103840001346BB80074AFB881380064ABB88538017
:10385000BB88FA88B988F88800F006F800BF0837F6
:10386000BD4680BD7854002090B583B000AF0446BB
:10387000084611461A462346FB800346BB800B468A
:103880007B8013463B802A2000F0A0F8FB881B0AAF
:103890009BB2184600F0AAF8FB88DBB29BB2184630
:1038A00000F0A4F87B881B0A9BB2184600F09EF833
:1038B0007B88DBB29BB2184600F098F82B2000F012
:1038C00085F8BB881B0A9BB2184600F08FF8BB88AE
:1038D000DBB29BB2184600F089F83B881B0A9BB20A
:1038E000184600F083F83B88DBB29BB2184600F024
:1038F0007DF82C2000F06AF800BF0C37BD4690BD63
:1039000080B400AF034B1B881846BD465DF8047BAE
:10391000704700BF2000002080B400AF034B5B88DD
:103920001846BD465DF8047B704700BF20000020AC
:1039300080B400AF034B1B791846BD465DF8047B8D
:10394000704700BF2000002080B400AF034B9B688D
:103950001846BD465DF8047B704700BF100000208C
:1039600080B586B000AFBA607B600346FB810B4632
:10397000BB8100237B610F4B1B88013B9AB20D4B2F
:103980005B88013B9BB2B989F889FFF76DFF7B69C2
:103990005A1C7A615B00BA6813441B88184600F011
:1039A00025F87A697B689A42F1D300BF00BF1837C7
:1039B000BD4680BD2000002080B500AF012000F092
:1039C00005F8322003F0BAFF00BF80BD80B483B099
:1039D00000AF0346FB714FF0C043FA7992B21A80F0
:1039E00000BF0C37BD465DF8047B704780B483B0E0
:1039F00000AF0346FB80044AFB88138000BF0C37EE
:103A0000BD465DF8047B70470000086090B484B048
:103A100000AF0446084611461A462346FB7103468A
:103A2000BB710B467B7113463B710023FB733B7FDD
:103A3000002B03D0FB7B43F00403FB733B7E002B86
:103A400003D0FB7B43F00803FB733B79002B03D0CF
:103A5000FB7B43F01003FB737B79002B03D0FB7BD4
:103A600043F02003FB73BB79002B03D0FB7B43F0B7
:103A70004003FB73FB79002B03D0FB7B63F07F03D8
:103A8000FB73FB7B18461037BD4690BC70470000A7
:103A900080B500AFFEF7B4F8094B00221A70084B4E
:103AA00000229A71064B0022DA71054B00225A71EE
:103AB000034B00221A72FEF7E3F900BF80BD00BF7E
:103AC0008054002080B500AFFDF758FB604B1B7899
:103AD000002B02D0022B19D0B8E05D4B9B79012B53
:103AE00040F0B1804FF4FC614FF4FC60FEF7F6F853
:103AF0004FF4FA7003F022FFFEF7E2F94FF6FF7081
:103B0000FEF7D2F8524B02221A709CE0504B1B7AFF
:103B1000013B032B7DD801A252F823F02D3B000876
:103B2000653B00089D3B0008DB3B00084FF4FC614F
:103B30004FF4FC60FEF7FCF84FF6FF70FEF7B4F8A8
:103B400000214FF6FF70FEF71DF900214FF6FF70C0
:103B5000FEF742F900214FF6FF70FEF767F9FDF717
:103B600025FB56E04FF4FC614FF4FC60FEF70AF9C8
:103B70004FF6FF70FEF798F800214FF6FF70FEF742
:103B8000D7F800214FF6FF70FEF726F900214FF617
:103B9000FF70FEF74BF9FDF7F1FD3AE04FF4FC61E1
:103BA0004FF4FC60FEF718F94FF6FF70FEF77CF853
:103BB00000214FF6FF70FEF7BBF800214FF6FF70B3
:103BC000FEF7E0F800214FF6FF70FEF72FF940F204
:103BD000DC516420FDF75CFB1BE04FF4FC614FF40B
:103BE000FC60FEF723F94FF6FF70FEF75DF8002149
:103BF0004FF6FF70FEF79CF800214FF6FF70FEF7BE
:103C0000C1F800214FF6FF70FEF7E6F8FDF7F8FB6C
:103C100000BF0F4B5B79012B17D14FF4FC60FEF70F
:103C200043F84FF4167003F089FEFEF729F90021DE
:103C30004FF6FF70FEF752F8054B00221A70044B46
:103C400000221A7201E000BF00E000BF00BF80BD8B
:103C50008054002080B582B000AFFDF747FF0346D7
:103C6000002B00F0A6803A1DBB1D11461846FDF73B
:103C700053FF0346002B00F0AD80584B1B78002B00
:103C800018D1B7F90630862B40F3A480B7F9063077
:103C9000B3F5877F00F39E80B7F90430312B40F3F2
:103CA0009980B7F90430462B00F394804B4B0122E6
:103CB0009A718FE0494B1B78012B04D0474B1B783E
:103CC000022B40F08780B7F90630C72B13DDB7F918
:103CD0000630B3F5877F0EDCB7F90430162B0ADD0A
:103CE000B7F90430462B06DC3C4B01221A723B4BE1
:103CF00001225A726EE0B7F90630B3F58C7F13DB00
:103D0000B7F90630B3F5A07F0EDCB7F90430772B96
:103D10000ADDB7F90430E12B06DC304B02221A72BF
:103D20002E4B01225A7255E0B7F90630632B12DD93
:103D3000B7F90630A52B0EDCB7F90430272B0ADDC6
:103D4000B7F90430462B06DC244B03221A72234BAE
:103D500001225A723EE0B7F90630092B12DDB7F99D
:103D60000630962B0EDCB7F90430772B0ADDB7F955
:103D70000430E12B06DC194B04221A72174B012286
:103D80005A7227E0B7F90630002B23DBB7F906306B
:103D9000462B1FDCB7F90430002B1BDBB7F90430CE
:103DA000232B17DC0D4B01225A710C4B01225A7246
:103DB00010E00A4B1B78002B05D1084B0022DA716A
:103DC000064B00229A71054B00225A71034B0022C8
:103DD0005A72FFE700BF0837BD4680BD80540020FF
:103DE00080B582B000AF78600021054806F09AFBEC
:103DF000044B01221A6000BF0837BD4680BD00BFDA
:103E0000D4550020185F00202DE9B00387B000AF23
:103E100078604FF000024FF00003C7E9042300234D
:103E2000FB6012E0144AFB6832F813309BB20022A8
:103E30001C461546D7E9042312EB040843EB050999
:103E4000C7E90489FB680133FB60FB68B3F5007FB9
:103E5000E8DBD7E904014FF000024FF00003420A0B
:103E600042EAC1524B0A054B1A6000BF1C37BD46DF
:103E7000BDE8B003704700BF14570020145F002056
:103E800080B582B000AF03F0E7FC00F055F800F019
:103E900067FA00F02FFA00F08DF900F001FA00F057
:103EA000B5F800F03BF900F009FB00F001F91E48FD
:103EB00006F0AEF84FF480621C491D4803F0A6FDE1
:103EC000FEF706FC012240211A4805F02FF80022D7
:103ED0008021184805F02AF8FEF706FC0120FFF7BC
:103EE0003FFCFDF75FFE00237B60FFF7D1FDFEF78F
:103EF0006FF9FDF743F903F015FD02467B68D31A0D
:103F0000B3F57A7F0AD340210A4805F028F88021CA
:103F1000084805F024F803F005FD7860FFF79AFEE5
:103F2000FFF7D0FDE5E700BF8C55002014570020B7
:103F30008C5400200000024080B594B000AF07F11F
:103F4000200330220021184608F059FF07F10C0326
:103F500000221A605A609A60DA601A610023BB601E
:103F6000284B1B6C274A43F080531364254B1B6C72
:103F700003F08053BB60BB6800237B60224B1B684F
:103F8000214A43F4804313601F4B1B6803F48043B2
:103F90007B607B6801233B624FF480337B620223AA
:103FA000BB634FF48003FB6304233B6448237B64BF
:103FB0000223BB640423FB6407F12003184604F0CA
:103FC000E9FF0346002B01D000F0D8FA0F23FB6075
:103FD00002233B6100237B614FF48053BB614FF4AC
:103FE0008053FB6107F10C030221184605F04AFAE1
:103FF0000346002B01D000F0C1FA00BF5037BD4688
:1040000080BD00BF003802400070004080B584B021
:1040100000AF3B4600221A605A609A60DA60224B79
:10402000224A1A60204B00225A601F4B00229A60DD
:104030001D4B00221A611C4B01221A761A4B0022DA
:1040400083F82020184B4FF08052DA62164B4FF065
:10405000C0629A62144B0022DA60134B0122DA61CB
:10406000114B012283F830200F4B00225A610E4879
:1040700003F088FC0346002B01D000F07FFA0023F8
:104080003B6001237B600123BB603B461946064829
:1040900003F0E4FD0346002B01D000F06FFA00BFEF
:1040A0001037BD4680BD00BF8C5400200020014069
:1040B00080B500AF174B184A1A60164B4FF4827246
:1040C0005A60144B00229A60124B0022DA60114BA6
:1040D00000221A610F4B00225A610E4B4FF40072FE
:1040E0009A610C4B0022DA610A4B00221A62094BDA
:1040F00000225A62074B00229A62064B0A22DA62B9
:10410000044805F0DFFB0346002B01D000F036FA2F
:1041100000BF80BD345500200038004080B586B017
:1041200000AF07F1080300221A605A609A60DA6053
:104130003B4600221A605A601D4B4FF080421A60C5
:104140001B4B47225A601A4B00229A60184B63227D
:10415000DA60174B00221A61154B80229A611448CD
:1041600005F006FF0346002B01D000F007FA4FF4DC
:104170008053BB6007F1080319460D4806F066FB43
:104180000346002B01D000F0F9F920233B60802387
:104190007B603B461946064807F01AF80346002B99
:1041A00001D000F0EBF900BF1837BD4680BD00BF5D
:1041B0008C55002080B58EB000AF07F12803002297
:1041C0001A605A609A60DA6007F1200300221A60D0
:1041D0005A603B1D00221A605A609A60DA601A61C8
:1041E0005A619A612C4B2D4A1A602B4B00225A605F
:1041F000294B00229A60284B5922DA60264B002274
:104200001A61254B00229A61234805F0B1FE03464E
:10421000002B01D000F0B2F94FF48053BB6207F1DC
:10422000280319461C4806F011FB0346002B01D059
:1042300000F0A4F9184805F053FF0346002B01D005
:1042400000F09CF900233B6200237B6207F120030E
:104250001946114806F0BCFF0346002B01D000F0C0
:104260008DF960237B600023BB600023FB6000238B
:104270007B613B1D00221946074806F025FA0346DC
:10428000002B01D000F07AF9034800F0D3FA00BF08
:104290003837BD4680BD00BFD45500200004004023
:1042A00080B500AF114B124A1A60104B4FF4E13247
:1042B0005A600E4B00229A600C4B0022DA600B4BC6
:1042C00000221A61094B0C225A61084B00229A61A4
:1042D000064B0022DA61054806F0F6FF0346002B84
:1042E00001D000F04BF900BF80BD00BF7C5600201C
:1042F0000010014080B582B000AF00237B60174BF7
:104300001B6B164A43F400131363144B1B6B03F42B
:1043100000137B607B6800233B60104B1B6B0F4AD4
:1043200043F4800313630D4B1B6B03F480033B606A
:104330003B68002200210F2004F00BF80F2004F04E
:1043400024F800220021382004F003F8382004F07B
:104350001CF800BF0837BD4680BD00BF00380240D2
:1043600080B58CB000AF07F11C0300221A605A60C0
:104370009A60DA601A610023BB614B4B1B6B4A4A9F
:1043800043F010031363484B1B6B03F01003BB6136
:10439000BB6900237B61444B1B6B434A43F08003A2
:1043A0001363414B1B6B03F080037B617B6900232C
:1043B0003B613D4B1B6B3C4A43F0010313633A4B9B
:1043C0001B6B03F001033B613B690023FB60364B31
:1043D0001B6B354A43F004031363334B1B6B03F031
:1043E0000403FB60FB680023BB602F4B1B6B2E4A52
:1043F00043F0020313632C4B1B6B03F00203BB60FF
:10440000BB6800237B60284B1B6B274A43F00803E3
:104410001363254B1B6B03F008037B607B68002252
:10442000C021224804F082FD002241F2020120480E
:1044300004F07CFD3023FB6100233B6200237B62A0
:1044400007F11C0319461B4804F0BCFBC023FB61A9
:1044500001233B6200237B620023BB6207F11C0344
:104460001946124804F0AEFB2023FB614FF4881379
:104470003B6200237B6207F11C0319460E4804F0DF
:10448000A1FB41F20203FB6101233B6200237B623B
:104490000023BB6207F11C031946054804F092FB98
:1044A00000BF3037BD4680BD0038024000000240EA
:1044B00000040240001002400008024080B588B0AD
:1044C00000AF3B1D00221A605A609A60DA601A61E0
:1044D0005A619A61274B4FF020421A60254B264AB9
:1044E0005A60244B00229A60224B0022DA60214B52
:1044F00000221A611F4B10225A611E4B00229A6142
:104500001C4B0022DA611B4B00221A62194B00225D
:104510005A62184B4FF480529A62164B0022DA62AC
:10452000144B00221A63134B00225A63114B0022D2
:104530009A63104B00225A640F237B600F23BB60E9
:10454000FF23FB600F233B6110237B611123BB61C1
:104550000023FB613B1D00221946064805F0C0FC04
:104560000346002B01D000F009F800BF2037BD46FC
:1045700080BD00BFC4560020040100A080B400AF7D
:1045800072B600BF00BFFDE780B483B000AF002368
:104590007B60104B5B6C0F4A43F4804353640D4BBC
:1045A0005B6C03F480437B607B6800233B60094BBA
:1045B0001B6C084A43F080531364064B1B6C03F0DA
:1045C00080533B603B6800BF0C37BD465DF8047B01
:1045D000704700BF0038024080B58AB000AF7860F5
:1045E00007F1140300221A605A609A60DA601A61B7
:1045F0007B681B682F4A934257D100233B612E4BA7
:104600005B6C2D4A43F4807353642B4B5B6C03F457
:1046100080733B613B690023FB60274B1B6B264A81
:1046200043F001031363244B1B6B03F00103FB6096
:10463000FB6801237B610323BB610023FB6107F15E
:10464000140319461D4804F0BDFA1D4B1D4A1A609B
:104650001B4B00225A601A4B00229A60184B002212
:10466000DA60174B4FF480621A61154B4FF4006209
:104670005A61134B4FF400529A61114B4FF4807200
:10468000DA610F4B00221A620D4B00225A620C486D
:1046900003F096FE0346002B01D0FFF76FFF7B6807
:1046A000074A9A63064A7B68936300BF2837BD4672
:1046B00080BD00BF002001400038024000000240E1
:1046C000D45400201064024080B58AB000AF7860F6
:1046D00007F1140300221A605A609A60DA601A61C6
:1046E0007B681B68194A93422CD100233B61184B0D
:1046F0001B6C174A43F480431364154B1B6C03F483
:1047000080433B613B690023FB60114B1B6B104AEC
:1047100043F0020313630E4B1B6B03F00203FB60B9
:10472000FB684FF460437B610223BB610023FB61A4
:1047300003233B6205237B6207F1140319460548F6
:1047400004F040FA00BF2837BD4680BD0038004065
:10475000003802400004024080B584B000AF7860A9
:104760007B681B68B3F1804F0ED10023FB602D4B9B
:104770001B6C2C4A43F0010313642A4B1B6C03F09F
:104780000103FB60FB6848E07B681B68264A934294
:1047900043D10023BB60234B1B6C224A43F002032E
:1047A0001364204B1B6C03F00203BB60BB681F4B00
:1047B0001F4A1A601D4B4FF020625A601B4B40226B
:1047C0009A601A4B0022DA60184B4FF480621A612B
:1047D000164B4FF400625A61144B4FF400529A6129
:1047E000124B0022DA61114B00221A620F4B002299
:1047F0005A620E4803F0E4FD0346002B01D0FFF798
:10480000BDFE7B68094A5A62084A7B6893637B68ED
:10481000064A9A63054A7B68936300BF1037BD461A
:1048200080BD00BF00380240000400401C5600203C
:104830007060024080B588B000AF786007F10C036B
:1048400000221A605A609A60DA601A617B681B68FD
:10485000124A93421DD10023BB60114B1B6B104ABF
:1048600043F0040313630E4B1B6B03F00403BB60A4
:10487000BB684023FB6002233B6100237B61002374
:10488000BB610223FB6107F10C031946054804F0E4
:1048900099F900BF2037BD4680BD00BF000400402D
:1048A000003802400008024080B58AB000AF78604E
:1048B00007F1140300221A605A609A60DA601A61E4
:1048C0007B681B681D4A934234D100233B611C4B1B
:1048D0005B6C1B4A43F010035364194B5B6C03F091
:1048E00010033B613B690023FB60154B1B6B144AB3
:1048F00043F001031363124B1B6B03F00103FB60D6
:10490000FB684FF4C0637B610223BB610023FB6142
:1049100003233B6207237B6207F11403194609480E
:1049200004F050F900220021252003F012FD25207B
:1049300003F02BFD00BF2837BD4680BD00100140AD
:10494000003802400000024080B586B000AF3B1D39
:1049500000221A605A609A60DA601A612C4B1B6858
:10496000002B50D12A4B01221A6000233B60294BB7
:104970009B6B284A43F001039363264B9B6B03F028
:1049800001033B603B6880237B600223BB60012303
:10499000FB6002233B610C237B613B1D19461E48D3
:1049A00004F010F94FF47F437B600223BB600023C7
:1049B000FB6003233B610C237B613B1D19461648BA
:1049C00004F000F940F2B2337B600223BB600023A5
:1049D000FB6003233B610C237B613B1D19460F48A1
:1049E00004F0F0F84EF201437B600223BB60012328
:1049F000FB6002233B610C237B613B1D194607488A
:104A000004F0E0F800E000BF1837BD4680BD00BFED
:104A10001C5F00200038024000100240000C0240E1
:104A200080B582B000AF7860FFF78EFF00BF083717
:104A3000BD4680BD80B400AF00BFFDE780B400AFCD
:104A400000BFFDE780B400AF00BFFDE780B400AF5A
:104A500000BFFDE780B400AF00BFFDE780B400AF4A
:104A600000BFBD465DF8047B704780B400AF00BF57
:104A7000BD465DF8047B704780B400AF00BFBD4603
:104A80005DF8047B704780B500AF02F037FF00BFD0
:104A900080BD000080B500AF024803F029FE00BFD2
:104AA00080BD00BF1C56002080B500AF024806F054
:104AB0005BFC00BF80BD00BF7C56002080B500AF0E
:104AC000024803F015FE00BF80BD00BFD454002093
:104AD00080B400AF01231846BD465DF8047B7047E3
:104AE00080B582B000AF7860396008F0DBF903462A
:104AF00016221A604FF0FF3318460837BD4680BDB6
:104B000080B582B000AF78604FF0FF317868FFF772
:104B1000E7FF00BFFDE780B586B000AFF860B96081
:104B20007A6000237B610AE0AFF300800146BB6836
:104B30005A1CBA60CAB21A707B6901337B617A6908
:104B40007B689A42F0DB7B6818461837BD4680BD0B
:104B500080B586B000AFF860B9607A6000237B61F1
:104B600009E0BB685A1CBA601B781846AFF3008096
:104B70007B6901337B617A697B689A42F1DB7B68F0
:104B800018461837BD4680BD80B483B000AF78604A
:104B90004FF0FF3318460C37BD465DF8047B704775
:104BA00080B483B000AF786039603B684FF4005246
:104BB0005A60002318460C37BD465DF8047B7047E9
:104BC00080B483B000AF7860012318460C37BD462F
:104BD0005DF8047B704780B485B000AFF860B960C1
:104BE0007A60002318461437BD465DF8047B704791
:104BF00080B586B000AF7860144A154BD31A7B613C
:104C00007B693B61134B1B68002B02D1114B124A8D
:104C10001A60104B1A687B6813443A699A4207D2AB
:104C200008F040F903460C221A604FF0FF3309E008
:104C3000084B1B68FB60074B1A687B681344054AE6
:104C40001360FB6818461837BD4680BD000002207F
:104C500000040000205F00207860002080B400AFD6
:104C6000064BD3F88830054A43F47003C2F8883005
:104C700000BFBD465DF8047B704700BF00ED00E05B
:104C8000DFF834D0FFF7EAFF0C480D490D4A002346
:104C900002E0D458C4500433C4188C42F9D30A4AF1
:104CA0000A4C002301E013600432A242FBD308F057
:104CB000FFF8FFF7E5F87047000002200000002031
:104CC000FC01002050FC0608FC010020746000205C
:104CD000FEE780B489B000AFF8600B467A607B8154
:104CE0000023FB6143E0FB695B007A6813441B8887
:104CF0009B089BB2BB61FB6901335B007A6813447C
:104D00001B889B089BB27B61BB699B00FA681344BC
:104D10001B683B617B699B00FA681A44BB699B0076
:104D2000F9680B4412681A607B699B00FA681344A7
:104D30003A691A60BB6901339B00FA6813441B6827
:104D40003B617B6901339B00FA681A44BB690133FC
:104D50009B00F9680B4412681A607B6901339B0061
:104D6000FA6813443A691A60FB690233FB617B8974
:104D7000FA699A42B7D300BF00BF2437BD465DF839
:104D8000047B704780B5A0B000AF786039607B6865
:104D90001B88BB66BB6E9B003A6813447B677B68CD
:104DA0005B683B673B687B667B6F3B66BB6E5B0803
:104DB000BB66BB6E9B003A681344FB67BB6E9B00EF
:104DC0007A6F1344BB67BB6E9B08FB66B6E13B681A
:104DD0001B68BB633B685B68FB633B689B683B6429
:104DE0003B68DB687B647B6F1B68BB627B6F5B68C7
:104DF000FB627B6F9B683B637B6FDB687B63FB6F56
:104E00001B68BB61FB6F5B68FB61FB6F9B683B6270
:104E1000FB6FDB687B62BB6F1B68BB60BB6F5B6853
:104E2000FB60BB6F9B683B61BB6FDB687B6197ED91
:104E30000E7AD7ED0A7A3B681A1D3A6077EE277A28
:104E4000C3ED007A97ED0F7AD7ED0B7A3B681A1D08
:104E50003A6077EE277AC3ED007A97ED107AD7EDB6
:104E60000C7A3B681A1D3A6077EE277AC3ED007A18
:104E700097ED117AD7ED0D7A3B681A1D3A6077EEFF
:104E8000277AC3ED007A97ED0E7AD7ED0A7A77EE9E
:104E9000677AC7ED0A7A97ED0F7AD7ED0B7A77EE3E
:104EA000677AC7ED0B7A97ED107AD7ED0C7A77EE2B
:104EB000677AC7ED0C7A97ED117AD7ED0D7A77EE18
:104EC000677AC7ED0D7A97ED067AD7ED027AFB6F18
:104ED0001A1DFA6777EE277AC3ED007A97ED077A05
:104EE000D7ED037AFB6F1A1DFA6777EE277AC3EDC9
:104EF000007A97ED087AD7ED047AFB6F1A1DFA67EE
:104F000077EE277AC3ED007A97ED097AD7ED057A27
:104F1000FB6F1A1DFA6777EE277AC3ED007A97EDDB
:104F2000027AD7ED067A77EE677AC7ED027A97EDC7
:104F3000037AD7ED077A77EE677AC7ED037A97EDB4
:104F4000047AD7ED087A77EE677AC7ED047A97EDA1
:104F5000057AD7ED097A77EE677AC7ED057A3B6F68
:104F60001A1D3A671B68FB653B6F1A1D3A671B6881
:104F7000BB65D7ED0A7A97ED177A67EE277AC7ED0A
:104F8000157AD7ED0B7A97ED167A67EE277AC7ED8B
:104F9000147AD7ED0B7A97ED177A67EE277AC7ED7B
:104FA000137AD7ED0A7A97ED167A67EE277AC7ED6E
:104FB000127A7B6F1A1D7A6797ED157AD7ED147AFE
:104FC00077EE277AC3ED007A7B6F1A1D7A6797ED2B
:104FD000137AD7ED127A77EE677AC3ED007AD7EDC0
:104FE000027A97ED167A67EE277AC7ED157AD7ED34
:104FF000037A97ED177A67EE277AC7ED147AD7ED23
:10500000037A97ED167A67EE277AC7ED137AD7ED14
:10501000027A97ED177A67EE277AC7ED127ABB6F9F
:105020001A1DBA6797ED157AD7ED147A77EE677A7D
:10503000C3ED007ABB6F1A1DBA6797ED137AD7EDEF
:10504000127A77EE277AC3ED007A3B6F1A1D3A6722
:105050001B68FB653B6F1A1D3A671B68BB65D7ED84
:105060000C7A97ED177A67EE277AC7ED157AD7EDA8
:105070000D7A97ED167A67EE277AC7ED147AD7ED99
:105080000D7A97ED177A67EE277AC7ED137AD7ED89
:105090000C7A97ED167A67EE277AC7ED127A7B6F56
:1050A0001A1D7A6797ED157AD7ED147A77EE277A7D
:1050B000C3ED007A7B6F1A1D7A6797ED137AD7EDEF
:1050C000127A77EE677AC3ED007AD7ED047A97ED1E
:1050D000167A67EE277AC7ED157AD7ED057A97ED40
:1050E000177A67EE277AC7ED147AD7ED057A97ED30
:1050F000167A67EE277AC7ED137AD7ED047A97ED23
:10510000177A67EE277AC7ED127ABB6F1A1DBA6756
:1051100097ED157AD7ED147A77EE677AC3ED007ABA
:10512000BB6F1A1DBA6797ED137AD7ED127A77EE37
:10513000277AC3ED007AFB6E013BFB66FB6E002B0A
:105140007FF445AEBB6E99B27B685A680223786ED5
:1051500001F00EF8BB6E99B27B685A680223386E74
:1051600001F006F800BF8037BD4680BD80B5ACB009
:1051700000AF786039607B681B885B089BB2C7F81A
:105180008030D7F880309B003A681344C7F89030DD
:10519000D7F880309B00D7F890201344C7F88C30A4
:1051A000D7F880309B00D7F88C201344C7F888309C
:1051B0003B68FB67D7F89030BB67D7F88C307B67CC
:1051C000D7F888303B67D7F89030043BC7F8AC304D
:1051D000D7F88C30043BC7F8A830D7F88830043BA8
:1051E000C7F8A430D7F880309B00D7F8A420134428
:1051F000C7F8A0307B685B68C7F89430D7F8943064
:10520000C7F89830D7F89830C7F89C30D7F8803076
:105210005B08C7F880300223FB660423BB660623C5
:105220007B663B6893ED007AD7F88C30D3ED007A3B
:1052300077EE277AC7ED187A3B6893ED007AD7F8B6
:105240008C30D3ED007A77EE677AC7ED177A3B683A
:10525000043393ED007AD7F88C300433D3ED007A21
:1052600077EE277AC7ED167A3B68043393ED007A20
:10527000D7F88C300433D3ED007A77EE677AC7ED38
:10528000157AD7F89030043393ED007AD7ED177A7A
:1052900037EE277AD7F888300433D3ED007A77EEEB
:1052A000677AC7ED0B7AD7F89030D3ED007A97ED97
:1052B000157A37EE677AD7F88830D3ED007A77EE33
:1052C000277AC7ED0C7AD7F89030D3ED007A97EDB6
:1052D000187A37EE677AD7F88830D3ED007A77EE10
:1052E000677AC7ED077AD7F890300433D3ED007AA8
:1052F00097ED167A37EE677AD7F888300433D3ED16
:10530000007A77EE677AC7ED087AD7F890300433E1
:10531000D3ED007A97ED177A37EE677AD7F88830B1
:105320000433D3ED007A77EE277AC7ED037AD7F806
:10533000903093ED007AD7ED157A37EE277AD7F8CB
:105340008830D3ED007A77EE677AC7ED047AD7F824
:10535000903093ED007AD7ED187A37EE277AD7F8A8
:105360008830D3ED007A3B681A1D3A6077EE277AD1
:10537000C3ED007AD7F89030043393ED007AD7ED7F
:10538000167A37EE277AD7F888300433D3ED007ACF
:105390003B681A1D3A6077EE277AC3ED007AD7F89A
:1053A00090301A1DC7F89020FA6A1A60D7F890302A
:1053B0001A1DC7F890203A6B1A60D7F88C301A1D66
:1053C000C7F88C20FA691A60D7F88C301A1DC7F814
:1053D0008C203A6A1A60D7F888301A1DC7F88820DE
:1053E000FA681A60D7F888301A1DC7F888203A6919
:1053F0001A60FB6E9B00D7F89C201344C7F89C30C2
:10540000BB6E9B00D7F898201344C7F898307B6E8A
:105410009B00D7F894201344C7F89430D7F8803015
:10542000023B5B08C7F884301CE33B6893ED007ACD
:10543000D7F88C30D3ED007A77EE277AC7ED187A5B
:105440003B6893ED007AD7F88C30D3ED007A77EE95
:10545000677AC7ED177A3B68043393ED007AD7F883
:105460008C300433D3ED007A77EE277AC7ED167AC5
:105470003B68043393ED007AD7F88C300433D3EDD6
:10548000007A77EE677AC7ED157AD7F89030043353
:1054900093ED007AD7ED177A37EE277AD7F8883070
:1054A0000433D3ED007A77EE677AC7ED0B7AD7F83D
:1054B0009030D3ED007A97ED157A37EE677AD7F80A
:1054C0008830D3ED007A77EE277AC7ED0C7AD7F8DB
:1054D0009030D3ED007A97ED187A37EE677AD7F8E7
:1054E0008830D3ED007A77EE677AC7ED077AD7F880
:1054F00090300433D3ED007A97ED167A37EE677A61
:10550000D7F888300433D3ED007A77EE677AC7EDA9
:10551000087AD7F890300433D3ED007A97ED177AF4
:1055200037EE677AD7F888300433D3ED007A77EE18
:10553000277AC7ED037AD7F8903093ED007AD7ED4C
:10554000157A37EE277AD7F88830D3ED007A77EEE0
:10555000677AC7ED047AD7F8903093ED007AD7EDEB
:10556000187A37EE277AD7F88830D3ED007A3B687F
:105570001A1D3A6077EE277AC3ED007AD7F890309B
:10558000043393ED007AD7ED167A37EE277AD7F801
:1055900088300433D3ED007A3B681A1D3A6077EE09
:1055A000277AC3ED007AD7F8AC30043B93ED007A4C
:1055B000D7F8A430043BD3ED007A77EE277AC7ED15
:1055C000167AD7F8AC30043B93ED007AD7F8A430C4
:1055D000043BD3ED007A77EE677AC7ED157AD7F8FA
:1055E000AC3093ED007AD7F8A430D3ED007A77EEA3
:1055F000277AC7ED187AD7F8AC3093ED007AD7F850
:10560000A430D3ED007A77EE677AC7ED177AD7F832
:10561000A83093ED007AD7F8A030D3ED007A37EEBA
:10562000677AD7ED157A77EE277AC7ED0D7AD7F836
:10563000AC3093ED007AD7F8A430D3ED007A37EE92
:10564000677AD7F8A830043BD3ED007A37EE677A53
:10565000D7F8A030043BD3ED007A77EE277AC7ED78
:105660000E7AD7F8A830043BD3ED007A97ED167A7E
:1056700037EE677AD7F8A030043BD3ED007A77EEA7
:10568000677AC7ED097AD7F8A830D3ED007A97ED9D
:10569000187A37EE677AD7F8A030D3ED007A77EE34
:1056A000677AC7ED0A7AD7F8A83093ED007AD7F871
:1056B000A030D3ED007A37EE677AD7ED157A77EE22
:1056C000677AC7ED057AD7F8A030043B93ED007AEE
:1056D000D7F8A830043BD3ED007A37EE677AD7EDE0
:1056E000177A77EE677AC7ED067AD7F8A83093ED88
:1056F000007AD7ED187A37EE277AD7F8A030D3EDB5
:10570000007AD7F8AC301A1FC7F8AC2077EE277AAA
:10571000C3ED007AD7F8A830043B93ED007AD7EDBB
:10572000167A37EE277AD7F8A030043BD3ED007A0B
:10573000D7F8AC301A1FC7F8AC2077EE277AC3ED44
:10574000007AD7F89C301A1DC7F89C201B683B656F
:10575000D7F89C301A1DC7F89C201B68FB64D7ED56
:105760000B7A97ED147A67EE277AC7ED127AD7EDA8
:105770000C7A97ED137A67EE277AC7ED117AD7ED99
:105780000C7A97ED147A67EE277AC7ED107AD7ED89
:105790000B7A97ED137A67EE277AC7ED0F7AD7F871
:1057A00090301A1DC7F8902097ED127AD7ED117A34
:1057B00077EE277AC3ED007AD7F890301A1DC7F834
:1057C000902097ED107AD7ED0F7A77EE677AC3EDD8
:1057D000007AD7ED0E7A97ED137A67EE277AC7ED48
:1057E000127AD7ED0D7A97ED147A67EE277AC7ED26
:1057F000117AD7ED0D7A97ED137A67EE277AC7ED18
:10580000107AD7ED0E7A97ED147A67EE277AC7ED06
:105810000F7AD7F8A8301A1FC7F8A82097ED127A88
:10582000D7ED117A77EE677AC3ED007AD7F8A83012
:105830001A1FC7F8A82097ED107AD7ED0F7A77EEE8
:10584000277AC3ED007AD7F898301B683B65D7F804
:10585000983004331B68FB64BB6E9B00D7F898201C
:105860001344C7F89830D7ED077A97ED147A67EEAE
:10587000277AC7ED127AD7ED087A97ED137A67EE9B
:10588000277AC7ED117AD7ED087A97ED147A67EE8B
:10589000277AC7ED107AD7ED077A97ED137A67EE7E
:1058A000277AC7ED0F7AD7F88C301A1DC7F88C20ED
:1058B00097ED127AD7ED117A77EE277AC3ED007A59
:1058C000D7F88C301A1DC7F88C2097ED107AD7EDD9
:1058D0000F7A77EE677AC3ED007AD7ED0A7AF1EEA8
:1058E000677A97ED147A67EE277AC7ED127AD7EDCB
:1058F000097A97ED137A67EE277AC7ED117AD7ED1B
:10590000097A97ED147A67EE277AC7ED107AD7ED0A
:105910000A7A97ED137A67EE277AC7ED0F7AD7F8F0
:10592000A4301A1FC7F8A42097ED127AD7ED117A88
:1059300077EE677AC3ED007AD7F8A4301A1FC7F85C
:10594000A42097ED0F7AD7ED107A77EE677AC3ED42
:10595000007AD7F894301B683B65D7F8943004334D
:105960001B68FB647B6E9B00D7F894201344C7F838
:105970009430D7ED037A97ED147A67EE277AC7ED66
:10598000127AD7ED047A97ED137A67EE277AC7ED8E
:10599000117AD7ED047A97ED147A67EE277AC7ED7E
:1059A000107AD7ED037A97ED137A67EE277AC7ED71
:1059B0000F7AD7F888301A1DC7F8882097ED127A29
:1059C000D7ED117A77EE277AC3ED007AD7F88830D1
:1059D0001A1DC7F8882097ED107AD7ED0F7A77EE69
:1059E000677AC3ED007AD7ED067A97ED137A67EE02
:1059F000277AC7ED127AD7ED057A97ED147A67EE1C
:105A0000277AC7ED117AD7ED057A97ED137A67EE0D
:105A1000277AC7ED107AD7ED067A97ED147A67EEFC
:105A2000277AC7ED0F7AD7F8A0301A1FC7F8A02041
:105A300097ED127AD7ED117A77EE677AC3ED007A97
:105A4000D7F8A0301A1FC7F8A02097ED107AD7ED2D
:105A50000F7A77EE277AC3ED007AD7F88430013BCE
:105A6000C7F88430D7F88430002B7FF4DEAC3B6875
:105A700093ED007AD7F88C30D3ED007A77EE277A61
:105A8000C7ED187A3B6893ED007AD7F88C30D3EDE8
:105A9000007A77EE677AC7ED177A3B68043393EDA7
:105AA000007AD7F88C300433D3ED007A77EE277A7A
:105AB000C7ED167A3B68043393ED007AD7F88C3043
:105AC0000433D3ED007A77EE677AC7ED157AD7F80D
:105AD0009030043393ED007AD7ED177A37EE277ABA
